:020000020000FC
:02000000FFC03F
:020034002FC1DA
:02000400E0C159
:02000800E0C155
:02000C00E9C148
:04001C000C94FE0141
:1002000008E00EBF0FE50DBF0E941C010E943D01DA
:100210000E942D010E9427010E9443015527662755
:1002200010E010939900109398008E9AA19AD59A95
:10023000D69ADE987894FFCF10E01BB918E91AB966
:1002400016E810BD17E619B910E010BD0895BB9A65
:1002500040E04CBF11E613BF08951FEF1BBD1ABD50
:1002600009E0009393000DE30093920010E01FBD9E
:100270001DE01EBD10E119BF08958F9A30E033BD17
:1002800011E615BD08951FE015BF10E414BF10EE70
:100290001BBF0895A99ADE9A0E945002A998DE9881
:1002A00010919800012F047019F400E00093980059
:1002B0001CB11053009198000370DAF4012F05353A
:1002C00049F401E00093980073E50E9463020E94E4
:1002D00067021895012F0A3A49F402E077E40E9478
:1002E0006302009398000E94670218950E945D02C5
:1002F0001895009198000C701AF5012F003149F4FF
:1003000004E073E50E946302009398000E94670274
:100310001895012F013149F471E50E94630230E024
:100320000E941B020E945D021895012F023129F4E0
:100330000E940C020E945D0218950E945D021895B1
:10034000009198000C700430E9F50091980000715C
:1003500092F4012F003031F430E00E941B020E9421
:100360005D021895312F109198001061109398003C
:100370000E9467021895009198000072D2F4012F34
:10038000003059F40AE0309F312D1091980010622E
:10039000109398000E94670218950AE0309F312D53
:1003A000310F109198001062109398000E9467021C
:1003B0001895012F003031F434E60E941B020E9490
:1003C0005D021895189500001895869901C018953A
:1003D000A99A0E945002A99872E30E94630218959C
:1003E0001F931FB71F93539513FF04C06395762F78
:1003F0000E9463021F911FBF1F9118951F9310E168
:1004000018BF009198000470043021F40E945D022E
:1004100000E109BF1F91189571E40E94630200007A
:10042000089533BD732F0E94630208954CBF742F4B
:100430000E94630208951F932F93732F0E946302FB
:1004400012E0319F202D3093960012E0109395001A
:100450000E94330210919400210F322F0E9411024A
:100460002F911F9108955F934F931F932F93509156
:1004700096004091950011E020E0550F221F2417AF
:1004800018F4110FD0F705C0241B110F1395A8F70E
:1004900000C0109394002F911F914F915F91089588
:1004A0001F932F931FEF2FEF1A950000E9F72A955E
:1004B0000000D1F72F911F9108951F9310E0109322
:1004C00098001F9108955D9BFECF7CB9089503C0ED
:1004D00015C000E109BF00912C00202F3FEF321B17
:1004E00020919300321710F00C947A02200F209381
:1004F00091000895231B20939100089500912D00F1
:10050000202F3FEF321B20919200321710F00C94F5
:100510007A02200F209390000895231B20939000CF
:0205200008953C
:00000001FF
