:020000020000FC
:02000000FFC03F
:0200340029C1E0
:02000400CEC16B
:02000800CEC167
:02000C00D7C15A
:04001C000C94EC0153
:1002000008E00EBF0FE50DBF0E941C010E943701E0
:100210000E942D010E9427010E943D01552766275B
:1002200010E010939900109398008E9AA19AD59A95
:10023000D69ADE987894FFCF10E01BB918E91AB966
:1002400016E810BD17E619B910E010BD0895BB9A65
:1002500040E04CBF11E613BF08951FEF1BBD1ABD50
:1002600010E01FBD1DE01EBD10E119BF08958F9A5B
:1002700030E033BD11E615BD08951FE015BF10E451
:1002800014BF10EE1BBF0895A99ADE9A0E9438028F
:10029000A998DE9810919800012F047019F400E0DD
:1002A000009398001CB11053009198000370AAF4B9
:1002B000012F053531F401E0009398000E944F02B0
:1002C0001895012F0A3A31F402E0009398000E9439
:1002D0004F0218950E9445021895009198000C70E5
:1002E000EAF4012F003131F404E0009398000E94F9
:1002F0004F021895012F013131F430E00E940602BF
:100300000E9445021895012F023129F40E94FA013A
:100310000E94450218950E94450218950091980088
:100320000C700430E9F500919800007192F4012FEF
:10033000003031F430E00E9406020E944502189518
:10034000312F109198001061109398000E944F0275
:100350001895009198000072D2F4012F003059F4E2
:100360000AE0309F312D1091980010621093980090
:100370000E944F0218950AE0309F312D310F1091E5
:1003800098001062109398000E944F021895012F58
:10039000003031F434E60E9406020E9445021895AE
:1003A000189500001895869901C01895A99A0E9481
:1003B0003802A99872E30E944B0218951F931FB749
:1003C0001F93539513FF04C06395762F0E944B0231
:1003D0001F911FBF1F9118951F9310E118BF009127
:1003E00098000470043021F40E94450200E109BF26
:1003F0001F9118950000089533BD732F0E944B0282
:1004000008954CBF742F0E944B0208951F932F93A1
:1004100012E0319F202D3093960012E0109395004A
:100420000E941B0210919400210F322F0E94FC01A8
:100430002F911F9108955F934F931F932F93509186
:1004400096004091950011E020E0550F221F2417DF
:1004500018F4110FD0F705C0241B110F1395A8F73E
:1004600000C0109394002F911F914F915F910895B8
:100470001F932F931FEF2FEF1A950000E9F72A958E
:100480000000D1F72F911F9108951F9310E0109352
:1004900098001F9108955D9BFECF7CB9089503C01D
:1004A00015C000E109BF00912C00202F3FEF321B47
:1004B00020919300321710F00C946202200F2093C9
:1004C00091000895231B20939100089500912D0021
:1004D000202F3FEF321B20919200321710F00C9426
:1004E0006202200F209390000895231B2093900018
:0204F00008956D
:00000001FF
